{
  "_format": "hh-sol-artifact-1",
  "contractName": "Newschain",
  "sourceName": "contracts/Newschain.sol",
  "abi": [
    {
      "inputs": [
        {
          "internalType": "address",
          "name": "_owner",
          "type": "address"
        }
      ],
      "stateMutability": "nonpayable",
      "type": "constructor"
    },
    {
      "inputs": [
        {
          "internalType": "uint256",
          "name": "",
          "type": "uint256"
        }
      ],
      "name": "IdToPost",
      "outputs": [
        {
          "internalType": "uint256",
          "name": "postId",
          "type": "uint256"
        },
        {
          "internalType": "string",
          "name": "title",
          "type": "string"
        },
        {
          "internalType": "string",
          "name": "coverPhoto",
          "type": "string"
        },
        {
          "internalType": "string",
          "name": "content",
          "type": "string"
        },
        {
          "internalType": "uint256",
          "name": "publishedTime",
          "type": "uint256"
        },
        {
          "internalType": "address",
          "name": "publisher",
          "type": "address"
        }
      ],
      "stateMutability": "view",
      "type": "function"
    },
    {
      "inputs": [],
      "name": "_postId",
      "outputs": [
        {
          "internalType": "uint256",
          "name": "_value",
          "type": "uint256"
        }
      ],
      "stateMutability": "view",
      "type": "function"
    },
    {
      "inputs": [
        {
          "internalType": "string",
          "name": "_title",
          "type": "string"
        },
        {
          "internalType": "string",
          "name": "_coverPhoto",
          "type": "string"
        },
        {
          "internalType": "string",
          "name": "_content",
          "type": "string"
        },
        {
          "internalType": "string[]",
          "name": "_tags",
          "type": "string[]"
        }
      ],
      "name": "createPost",
      "outputs": [],
      "stateMutability": "nonpayable",
      "type": "function"
    },
    {
      "inputs": [
        {
          "internalType": "string",
          "name": "_email",
          "type": "string"
        },
        {
          "internalType": "string",
          "name": "_socialMedia",
          "type": "string"
        },
        {
          "internalType": "string",
          "name": "_personalSite",
          "type": "string"
        },
        {
          "internalType": "string",
          "name": "_bio",
          "type": "string"
        },
        {
          "internalType": "string",
          "name": "_profilePhoto",
          "type": "string"
        },
        {
          "internalType": "string",
          "name": "_coverPhoto",
          "type": "string"
        }
      ],
      "name": "createProfile",
      "outputs": [],
      "stateMutability": "nonpayable",
      "type": "function"
    },
    {
      "inputs": [
        {
          "internalType": "uint256",
          "name": "postId",
          "type": "uint256"
        },
        {
          "internalType": "string",
          "name": "_title",
          "type": "string"
        },
        {
          "internalType": "string",
          "name": "_coverPhoto",
          "type": "string"
        },
        {
          "internalType": "string",
          "name": "_content",
          "type": "string"
        },
        {
          "internalType": "string[]",
          "name": "_tags",
          "type": "string[]"
        }
      ],
      "name": "editPost",
      "outputs": [],
      "stateMutability": "nonpayable",
      "type": "function"
    },
    {
      "inputs": [],
      "name": "fetchMyPosts",
      "outputs": [
        {
          "components": [
            {
              "internalType": "uint256",
              "name": "postId",
              "type": "uint256"
            },
            {
              "internalType": "string",
              "name": "title",
              "type": "string"
            },
            {
              "internalType": "string",
              "name": "coverPhoto",
              "type": "string"
            },
            {
              "internalType": "string",
              "name": "content",
              "type": "string"
            },
            {
              "internalType": "uint256",
              "name": "publishedTime",
              "type": "uint256"
            },
            {
              "internalType": "address",
              "name": "publisher",
              "type": "address"
            },
            {
              "internalType": "string[]",
              "name": "tags",
              "type": "string[]"
            }
          ],
          "internalType": "struct NewsPost.Post[]",
          "name": "",
          "type": "tuple[]"
        }
      ],
      "stateMutability": "view",
      "type": "function"
    },
    {
      "inputs": [],
      "name": "fetchProfile",
      "outputs": [
        {
          "components": [
            {
              "internalType": "uint256",
              "name": "userId",
              "type": "uint256"
            },
            {
              "internalType": "string",
              "name": "emailId",
              "type": "string"
            },
            {
              "internalType": "string",
              "name": "socialMedia",
              "type": "string"
            },
            {
              "internalType": "string",
              "name": "personalWebsite",
              "type": "string"
            },
            {
              "internalType": "address",
              "name": "walletAddress",
              "type": "address"
            },
            {
              "internalType": "string",
              "name": "bio",
              "type": "string"
            },
            {
              "internalType": "string",
              "name": "profilePhoto",
              "type": "string"
            },
            {
              "internalType": "string",
              "name": "coverPhoto",
              "type": "string"
            }
          ],
          "internalType": "struct BeACreator.Profile",
          "name": "",
          "type": "tuple"
        }
      ],
      "stateMutability": "view",
      "type": "function"
    },
    {
      "inputs": [
        {
          "internalType": "uint256",
          "name": "postId",
          "type": "uint256"
        }
      ],
      "name": "getOnePost",
      "outputs": [
        {
          "components": [
            {
              "internalType": "uint256",
              "name": "postId",
              "type": "uint256"
            },
            {
              "internalType": "string",
              "name": "title",
              "type": "string"
            },
            {
              "internalType": "string",
              "name": "coverPhoto",
              "type": "string"
            },
            {
              "internalType": "string",
              "name": "content",
              "type": "string"
            },
            {
              "internalType": "uint256",
              "name": "publishedTime",
              "type": "uint256"
            },
            {
              "internalType": "address",
              "name": "publisher",
              "type": "address"
            },
            {
              "internalType": "string[]",
              "name": "tags",
              "type": "string[]"
            }
          ],
          "internalType": "struct NewsPost.Post",
          "name": "",
          "type": "tuple"
        }
      ],
      "stateMutability": "view",
      "type": "function"
    },
    {
      "inputs": [
        {
          "internalType": "address",
          "name": "",
          "type": "address"
        }
      ],
      "name": "isCreator",
      "outputs": [
        {
          "internalType": "bool",
          "name": "",
          "type": "bool"
        }
      ],
      "stateMutability": "view",
      "type": "function"
    },
    {
      "inputs": [],
      "name": "owner",
      "outputs": [
        {
          "internalType": "address",
          "name": "",
          "type": "address"
        }
      ],
      "stateMutability": "view",
      "type": "function"
    },
    {
      "inputs": [
        {
          "internalType": "string",
          "name": "_email",
          "type": "string"
        },
        {
          "internalType": "string",
          "name": "_socialMedia",
          "type": "string"
        },
        {
          "internalType": "string",
          "name": "_personalSite",
          "type": "string"
        },
        {
          "internalType": "string",
          "name": "_bio",
          "type": "string"
        },
        {
          "internalType": "string",
          "name": "_profilePhoto",
          "type": "string"
        },
        {
          "internalType": "string",
          "name": "_coverPhoto",
          "type": "string"
        }
      ],
      "name": "updateProfile",
      "outputs": [],
      "stateMutability": "nonpayable",
      "type": "function"
    },
    {
      "inputs": [],
      "name": "user",
      "outputs": [
        {
          "internalType": "address",
          "name": "",
          "type": "address"
        }
      ],
      "stateMutability": "view",
      "type": "function"
    },
    {
      "inputs": [],
      "name": "userId",
      "outputs": [
        {
          "internalType": "uint256",
          "name": "_value",
          "type": "uint256"
        }
      ],
      "stateMutability": "view",
      "type": "function"
    },
    {
      "inputs": [
        {
          "internalType": "uint256",
          "name": "",
          "type": "uint256"
        }
      ],
      "name": "userIdToProfile",
      "outputs": [
        {
          "internalType": "uint256",
          "name": "userId",
          "type": "uint256"
        },
        {
          "internalType": "string",
          "name": "emailId",
          "type": "string"
        },
        {
          "internalType": "string",
          "name": "socialMedia",
          "type": "string"
        },
        {
          "internalType": "string",
          "name": "personalWebsite",
          "type": "string"
        },
        {
          "internalType": "address",
          "name": "walletAddress",
          "type": "address"
        },
        {
          "internalType": "string",
          "name": "bio",
          "type": "string"
        },
        {
          "internalType": "string",
          "name": "profilePhoto",
          "type": "string"
        },
        {
          "internalType": "string",
          "name": "coverPhoto",
          "type": "string"
        }
      ],
      "stateMutability": "view",
      "type": "function"
    }
  ],
  "bytecode": "0x60806040523480156200001157600080fd5b506040516200385f3803806200385f83398181016040528101906200003791906200009e565b600160008190555080600760006101000a81548173ffffffffffffffffffffffffffffffffffffffff021916908373ffffffffffffffffffffffffffffffffffffffff1602179055505062000118565b6000815190506200009881620000fe565b92915050565b600060208284031215620000b157600080fd5b6000620000c18482850162000087565b91505092915050565b6000620000d782620000de565b9050919050565b600073ffffffffffffffffffffffffffffffffffffffff82169050919050565b6200010981620000ca565b81146200011557600080fd5b50565b61373780620001286000396000f3fe608060405234801561001057600080fd5b50600436106100ea5760003560e01c806361babc6e1161008c578063a2a614bc11610066578063a2a614bc1461022e578063c6365c4c14610263578063efd460651461027f578063ff4c8880146102af576100ea565b806361babc6e146101bd5780638da5cb5b146101d9578063991dd96e146101f7576100ea565b806330e6b301116100c857806330e6b3011461014557806345b52d5a146101635780634f8632ba14610181578063589759191461019f576100ea565b806302b2bb38146100ef57806305b8eeed1461010b57806311c515e514610129575b600080fd5b610109600480360381019061010491906128e7565b6102df565b005b610113610488565b6040516101209190613091565b60405180910390f35b610143600480360381019061013e9190612aec565b610935565b005b61014d610bfe565b60405161015a91906131b2565b60405180910390f35b61016b610c0a565b6040516101789190613190565b60405180910390f35b610189611133565b6040516101969190613076565b60405180910390f35b6101a7611159565b6040516101b491906131b2565b60405180910390f35b6101d760048036038101906101d291906129aa565b611165565b005b6101e1611895565b6040516101ee9190613076565b60405180910390f35b610211600480360381019061020c9190612ac3565b6118bb565b6040516102259897969594939291906131cd565b60405180910390f35b61024860048036038101906102439190612ac3565b611c53565b60405161025a96959493929190613275565b60405180910390f35b61027d600480360381019061027891906129aa565b611e47565b005b610299600480360381019061029491906128be565b612108565b6040516102a691906130b3565b60405180910390f35b6102c960048036038101906102c49190612ac3565b612128565b6040516102d6919061316e565b60405180910390f35b60026000541415610325576040517f08c379a000000000000000000000000000000000000000000000000000000000815260040161031c9061314e565b60405180910390fd5b60026000819055506000610339600561244e565b905060006040518060e001604052808381526020018781526020018681526020018581526020014281526020013373ffffffffffffffffffffffffffffffffffffffff16815260200184815250905080600660008481526020019081526020016000206000820151816000015560208201518160010190805190602001906103c2929190612472565b5060408201518160020190805190602001906103df929190612472565b5060608201518160030190805190602001906103fc929190612472565b506080820151816004015560a08201518160050160006101000a81548173ffffffffffffffffffffffffffffffffffffffff021916908373ffffffffffffffffffffffffffffffffffffffff16021790555060c082015181600601908051906020019061046a9291906124f8565b50905050610478600561245c565b5050600160008190555050505050565b60606000610496600561244e565b905060008167ffffffffffffffff8111156104da577f4e487b7100000000000000000000000000000000000000000000000000000000600052604160045260246000fd5b60405190808252806020026020018201604052801561051357816020015b610500612558565b8152602001906001900390816104f85790505b5090506000805b8381101561092b573373ffffffffffffffffffffffffffffffffffffffff166006600083815260200190815260200160002060050160009054906101000a900473ffffffffffffffffffffffffffffffffffffffff1673ffffffffffffffffffffffffffffffffffffffff161415610918576000600660008381526020019081526020016000206000015490506000600660008381526020019081526020016000209050806040518060e0016040529081600082015481526020016001820180546105e490613496565b80601f016020809104026020016040519081016040528092919081815260200182805461061090613496565b801561065d5780601f106106325761010080835404028352916020019161065d565b820191906000526020600020905b81548152906001019060200180831161064057829003601f168201915b5050505050815260200160028201805461067690613496565b80601f01602080910402602001604051908101604052809291908181526020018280546106a290613496565b80156106ef5780601f106106c4576101008083540402835291602001916106ef565b820191906000526020600020905b8154815290600101906020018083116106d257829003601f168201915b5050505050815260200160038201805461070890613496565b80601f016020809104026020016040519081016040528092919081815260200182805461073490613496565b80156107815780601f1061075657610100808354040283529160200191610781565b820191906000526020600020905b81548152906001019060200180831161076457829003601f168201915b50505050508152602001600482015481526020016005820160009054906101000a900473ffffffffffffffffffffffffffffffffffffffff1673ffffffffffffffffffffffffffffffffffffffff1673ffffffffffffffffffffffffffffffffffffffff16815260200160068201805480602002602001604051908101604052809291908181526020016000905b828210156108bb57838290600052602060002001805461082e90613496565b80601f016020809104026020016040519081016040528092919081815260200182805461085a90613496565b80156108a75780601f1061087c576101008083540402835291602001916108a7565b820191906000526020600020905b81548152906001019060200180831161088a57829003601f168201915b50505050508152602001906001019061080f565b50505050815250508585815181106108fc577f4e487b7100000000000000000000000000000000000000000000000000000000600052603260045260246000fd5b60200260200101819052508380610912906134f9565b94505050505b8080610923906134f9565b91505061051a565b5081935050505090565b6002600054141561097b576040517f08c379a00000000000000000000000000000000000000000000000000000000081526004016109729061314e565b60405180910390fd5b600260008190555060006006600087815260200190815260200160002090503373ffffffffffffffffffffffffffffffffffffffff168160050160009054906101000a900473ffffffffffffffffffffffffffffffffffffffff1673ffffffffffffffffffffffffffffffffffffffff1614610a2c576040517f08c379a0000000000000000000000000000000000000000000000000000000008152600401610a23906130ee565b60405180910390fd5b82816003019080519060200190610a44929190612472565b50858160000181905550428160040181905550338160050160006101000a81548173ffffffffffffffffffffffffffffffffffffffff021916908373ffffffffffffffffffffffffffffffffffffffff16021790555083816002019080519060200190610ab2929190612472565b5084816001019080519060200190610acb929190612472565b5081816006019080519060200190610ae49291906124f8565b508060066000888152602001908152602001600020600082015481600001556001820181600101908054610b1790613496565b610b229291906125ab565b506002820181600201908054610b3790613496565b610b429291906125ab565b506003820181600301908054610b5790613496565b610b629291906125ab565b50600482015481600401556005820160009054906101000a900473ffffffffffffffffffffffffffffffffffffffff168160050160006101000a81548173ffffffffffffffffffffffffffffffffffffffff021916908373ffffffffffffffffffffffffffffffffffffffff1602179055506006820181600601908054610bea929190612638565b509050505060016000819055505050505050565b60058060000154905081565b610c126126a0565b600260003373ffffffffffffffffffffffffffffffffffffffff1673ffffffffffffffffffffffffffffffffffffffff16815260200190815260200160002060009054906101000a900460ff16610c9e576040517f08c379a0000000000000000000000000000000000000000000000000000000008152600401610c95906130ce565b60405180910390fd5b6000610caa600161244e565b9050610cb46126a0565b60005b8281101561112a573373ffffffffffffffffffffffffffffffffffffffff166003600083815260200190815260200160002060040160009054906101000a900473ffffffffffffffffffffffffffffffffffffffff1673ffffffffffffffffffffffffffffffffffffffff16141561111757600360008281526020019081526020016000206040518061010001604052908160008201548152602001600182018054610d6290613496565b80601f0160208091040260200160405190810160405280929190818152602001828054610d8e90613496565b8015610ddb5780601f10610db057610100808354040283529160200191610ddb565b820191906000526020600020905b815481529060010190602001808311610dbe57829003601f168201915b50505050508152602001600282018054610df490613496565b80601f0160208091040260200160405190810160405280929190818152602001828054610e2090613496565b8015610e6d5780601f10610e4257610100808354040283529160200191610e6d565b820191906000526020600020905b815481529060010190602001808311610e5057829003601f168201915b50505050508152602001600382018054610e8690613496565b80601f0160208091040260200160405190810160405280929190818152602001828054610eb290613496565b8015610eff5780601f10610ed457610100808354040283529160200191610eff565b820191906000526020600020905b815481529060010190602001808311610ee257829003601f168201915b505050505081526020016004820160009054906101000a900473ffffffffffffffffffffffffffffffffffffffff1673ffffffffffffffffffffffffffffffffffffffff1673ffffffffffffffffffffffffffffffffffffffff168152602001600582018054610f6e90613496565b80601f0160208091040260200160405190810160405280929190818152602001828054610f9a90613496565b8015610fe75780601f10610fbc57610100808354040283529160200191610fe7565b820191906000526020600020905b815481529060010190602001808311610fca57829003601f168201915b5050505050815260200160068201805461100090613496565b80601f016020809104026020016040519081016040528092919081815260200182805461102c90613496565b80156110795780601f1061104e57610100808354040283529160200191611079565b820191906000526020600020905b81548152906001019060200180831161105c57829003601f168201915b5050505050815260200160078201805461109290613496565b80601f01602080910402602001604051908101604052809291908181526020018280546110be90613496565b801561110b5780601f106110e05761010080835404028352916020019161110b565b820191906000526020600020905b8154815290600101906020018083116110ee57829003601f168201915b50505050508152505091505b8080611122906134f9565b915050610cb7565b50809250505090565b600460009054906101000a900473ffffffffffffffffffffffffffffffffffffffff1681565b60018060000154905081565b600260003373ffffffffffffffffffffffffffffffffffffffff1673ffffffffffffffffffffffffffffffffffffffff16815260200190815260200160002060009054906101000a900460ff166111f1576040517f08c379a00000000000000000000000000000000000000000000000000000000081526004016111e89061312e565b60405180910390fd5b60006111fd600161244e565b90506112076126a0565b600080600090505b83811015611689573373ffffffffffffffffffffffffffffffffffffffff166003600083815260200190815260200160002060040160009054906101000a900473ffffffffffffffffffffffffffffffffffffffff1673ffffffffffffffffffffffffffffffffffffffff161415611676576003600082815260200190815260200160002060405180610100016040529081600082015481526020016001820180546112ba90613496565b80601f01602080910402602001604051908101604052809291908181526020018280546112e690613496565b80156113335780601f1061130857610100808354040283529160200191611333565b820191906000526020600020905b81548152906001019060200180831161131657829003601f168201915b5050505050815260200160028201805461134c90613496565b80601f016020809104026020016040519081016040528092919081815260200182805461137890613496565b80156113c55780601f1061139a576101008083540402835291602001916113c5565b820191906000526020600020905b8154815290600101906020018083116113a857829003601f168201915b505050505081526020016003820180546113de90613496565b80601f016020809104026020016040519081016040528092919081815260200182805461140a90613496565b80156114575780601f1061142c57610100808354040283529160200191611457565b820191906000526020600020905b81548152906001019060200180831161143a57829003601f168201915b505050505081526020016004820160009054906101000a900473ffffffffffffffffffffffffffffffffffffffff1673ffffffffffffffffffffffffffffffffffffffff1673ffffffffffffffffffffffffffffffffffffffff1681526020016005820180546114c690613496565b80601f01602080910402602001604051908101604052809291908181526020018280546114f290613496565b801561153f5780601f106115145761010080835404028352916020019161153f565b820191906000526020600020905b81548152906001019060200180831161152257829003601f168201915b5050505050815260200160068201805461155890613496565b80601f016020809104026020016040519081016040528092919081815260200182805461158490613496565b80156115d15780601f106115a6576101008083540402835291602001916115d1565b820191906000526020600020905b8154815290600101906020018083116115b457829003601f168201915b505050505081526020016007820180546115ea90613496565b80601f016020809104026020016040519081016040528092919081815260200182805461161690613496565b80156116635780601f1061163857610100808354040283529160200191611663565b820191906000526020600020905b81548152906001019060200180831161164657829003601f168201915b5050505050815250509250809150611689565b8080611681906134f9565b91505061120f565b503373ffffffffffffffffffffffffffffffffffffffff16826080015173ffffffffffffffffffffffffffffffffffffffff16146116fc576040517f08c379a00000000000000000000000000000000000000000000000000000000081526004016116f39061310e565b60405180910390fd5b8082600001818152505088826020018190525087826040018190525086826060018190525033826080019073ffffffffffffffffffffffffffffffffffffffff16908173ffffffffffffffffffffffffffffffffffffffff1681525050858260a00181905250848260c00181905250838260e0018190525081600360008381526020019081526020016000206000820151816000015560208201518160010190805190602001906117ae929190612472565b5060408201518160020190805190602001906117cb929190612472565b5060608201518160030190805190602001906117e8929190612472565b5060808201518160040160006101000a81548173ffffffffffffffffffffffffffffffffffffffff021916908373ffffffffffffffffffffffffffffffffffffffff16021790555060a082015181600501908051906020019061184c929190612472565b5060c0820151816006019080519060200190611869929190612472565b5060e0820151816007019080519060200190611886929190612472565b50905050505050505050505050565b600760009054906101000a900473ffffffffffffffffffffffffffffffffffffffff1681565b60036020528060005260406000206000915090508060000154908060010180546118e490613496565b80601f016020809104026020016040519081016040528092919081815260200182805461191090613496565b801561195d5780601f106119325761010080835404028352916020019161195d565b820191906000526020600020905b81548152906001019060200180831161194057829003601f168201915b50505050509080600201805461197290613496565b80601f016020809104026020016040519081016040528092919081815260200182805461199e90613496565b80156119eb5780601f106119c0576101008083540402835291602001916119eb565b820191906000526020600020905b8154815290600101906020018083116119ce57829003601f168201915b505050505090806003018054611a0090613496565b80601f0160208091040260200160405190810160405280929190818152602001828054611a2c90613496565b8015611a795780601f10611a4e57610100808354040283529160200191611a79565b820191906000526020600020905b815481529060010190602001808311611a5c57829003601f168201915b5050505050908060040160009054906101000a900473ffffffffffffffffffffffffffffffffffffffff1690806005018054611ab490613496565b80601f0160208091040260200160405190810160405280929190818152602001828054611ae090613496565b8015611b2d5780601f10611b0257610100808354040283529160200191611b2d565b820191906000526020600020905b815481529060010190602001808311611b1057829003601f168201915b505050505090806006018054611b4290613496565b80601f0160208091040260200160405190810160405280929190818152602001828054611b6e90613496565b8015611bbb5780601f10611b9057610100808354040283529160200191611bbb565b820191906000526020600020905b815481529060010190602001808311611b9e57829003601f168201915b505050505090806007018054611bd090613496565b80601f0160208091040260200160405190810160405280929190818152602001828054611bfc90613496565b8015611c495780601f10611c1e57610100808354040283529160200191611c49565b820191906000526020600020905b815481529060010190602001808311611c2c57829003601f168201915b5050505050905088565b6006602052806000526040600020600091509050806000015490806001018054611c7c90613496565b80601f0160208091040260200160405190810160405280929190818152602001828054611ca890613496565b8015611cf55780601f10611cca57610100808354040283529160200191611cf5565b820191906000526020600020905b815481529060010190602001808311611cd857829003601f168201915b505050505090806002018054611d0a90613496565b80601f0160208091040260200160405190810160405280929190818152602001828054611d3690613496565b8015611d835780601f10611d5857610100808354040283529160200191611d83565b820191906000526020600020905b815481529060010190602001808311611d6657829003601f168201915b505050505090806003018054611d9890613496565b80601f0160208091040260200160405190810160405280929190818152602001828054611dc490613496565b8015611e115780601f10611de657610100808354040283529160200191611e11565b820191906000526020600020905b815481529060010190602001808311611df457829003601f168201915b5050505050908060040154908060050160009054906101000a900473ffffffffffffffffffffffffffffffffffffffff16905086565b60026000541415611e8d576040517f08c379a0000000000000000000000000000000000000000000000000000000008152600401611e849061314e565b60405180910390fd5b6002600081905550600260003373ffffffffffffffffffffffffffffffffffffffff1673ffffffffffffffffffffffffffffffffffffffff16815260200190815260200160002060009054906101000a900460ff1615611f22576040517f08c379a0000000000000000000000000000000000000000000000000000000008152600401611f199061312e565b60405180910390fd5b6000611f2e600161244e565b90506040518061010001604052808281526020018881526020018781526020018681526020013373ffffffffffffffffffffffffffffffffffffffff1681526020018581526020018481526020018381525060036000838152602001908152602001600020600082015181600001556020820151816001019080519060200190611fb9929190612472565b506040820151816002019080519060200190611fd6929190612472565b506060820151816003019080519060200190611ff3929190612472565b5060808201518160040160006101000a81548173ffffffffffffffffffffffffffffffffffffffff021916908373ffffffffffffffffffffffffffffffffffffffff16021790555060a0820151816005019080519060200190612057929190612472565b5060c0820151816006019080519060200190612074929190612472565b5060e0820151816007019080519060200190612091929190612472565b509050506001600260003373ffffffffffffffffffffffffffffffffffffffff1673ffffffffffffffffffffffffffffffffffffffff16815260200190815260200160002060006101000a81548160ff0219169083151502179055506120f7600161245c565b506001600081905550505050505050565b60026020528060005260406000206000915054906101000a900460ff1681565b612130612558565b600660008381526020019081526020016000206040518060e00160405290816000820154815260200160018201805461216890613496565b80601f016020809104026020016040519081016040528092919081815260200182805461219490613496565b80156121e15780601f106121b6576101008083540402835291602001916121e1565b820191906000526020600020905b8154815290600101906020018083116121c457829003601f168201915b505050505081526020016002820180546121fa90613496565b80601f016020809104026020016040519081016040528092919081815260200182805461222690613496565b80156122735780601f1061224857610100808354040283529160200191612273565b820191906000526020600020905b81548152906001019060200180831161225657829003601f168201915b5050505050815260200160038201805461228c90613496565b80601f01602080910402602001604051908101604052809291908181526020018280546122b890613496565b80156123055780601f106122da57610100808354040283529160200191612305565b820191906000526020600020905b8154815290600101906020018083116122e857829003601f168201915b50505050508152602001600482015481526020016005820160009054906101000a900473ffffffffffffffffffffffffffffffffffffffff1673ffffffffffffffffffffffffffffffffffffffff1673ffffffffffffffffffffffffffffffffffffffff16815260200160068201805480602002602001604051908101604052809291908181526020016000905b8282101561243f5783829060005260206000200180546123b290613496565b80601f01602080910402602001604051908101604052809291908181526020018280546123de90613496565b801561242b5780601f106124005761010080835404028352916020019161242b565b820191906000526020600020905b81548152906001019060200180831161240e57829003601f168201915b505050505081526020019060010190612393565b50505050815250509050919050565b600081600001549050919050565b6001816000016000828254019250508190555050565b82805461247e90613496565b90600052602060002090601f0160209004810192826124a057600085556124e7565b82601f106124b957805160ff19168380011785556124e7565b828001600101855582156124e7579182015b828111156124e65782518255916020019190600101906124cb565b5b5090506124f491906126fb565b5090565b828054828255906000526020600020908101928215612547579160200282015b82811115612546578251829080519060200190612536929190612472565b5091602001919060010190612518565b5b5090506125549190612718565b5090565b6040518060e001604052806000815260200160608152602001606081526020016060815260200160008152602001600073ffffffffffffffffffffffffffffffffffffffff168152602001606081525090565b8280546125b790613496565b90600052602060002090601f0160209004810192826125d95760008555612627565b82601f106125ea5780548555612627565b8280016001018555821561262757600052602060002091601f016020900482015b8281111561262657825482559160010191906001019061260b565b5b50905061263491906126fb565b5090565b82805482825590600052602060002090810192821561268f5760005260206000209182015b8281111561268e57828290805461267390613496565b61267e9291906125ab565b509160010191906001019061265d565b5b50905061269c9190612718565b5090565b60405180610100016040528060008152602001606081526020016060815260200160608152602001600073ffffffffffffffffffffffffffffffffffffffff1681526020016060815260200160608152602001606081525090565b5b808211156127145760008160009055506001016126fc565b5090565b5b80821115612738576000818161272f919061273c565b50600101612719565b5090565b50805461274890613496565b6000825580601f1061275a5750612779565b601f01602090049060005260206000209081019061277891906126fb565b5b50565b600061278f61278a84613310565b6132eb565b905080838252602082019050828560208602820111156127ae57600080fd5b60005b858110156127f857813567ffffffffffffffff8111156127d057600080fd5b8086016127dd898261287f565b855260208501945060208401935050506001810190506127b1565b5050509392505050565b60006128156128108461333c565b6132eb565b90508281526020810184848401111561282d57600080fd5b612838848285613454565b509392505050565b60008135905061284f816136d3565b92915050565b600082601f83011261286657600080fd5b813561287684826020860161277c565b91505092915050565b600082601f83011261289057600080fd5b81356128a0848260208601612802565b91505092915050565b6000813590506128b8816136ea565b92915050565b6000602082840312156128d057600080fd5b60006128de84828501612840565b91505092915050565b600080600080608085870312156128fd57600080fd5b600085013567ffffffffffffffff81111561291757600080fd5b6129238782880161287f565b945050602085013567ffffffffffffffff81111561294057600080fd5b61294c8782880161287f565b935050604085013567ffffffffffffffff81111561296957600080fd5b6129758782880161287f565b925050606085013567ffffffffffffffff81111561299257600080fd5b61299e87828801612855565b91505092959194509250565b60008060008060008060c087890312156129c357600080fd5b600087013567ffffffffffffffff8111156129dd57600080fd5b6129e989828a0161287f565b965050602087013567ffffffffffffffff811115612a0657600080fd5b612a1289828a0161287f565b955050604087013567ffffffffffffffff811115612a2f57600080fd5b612a3b89828a0161287f565b945050606087013567ffffffffffffffff811115612a5857600080fd5b612a6489828a0161287f565b935050608087013567ffffffffffffffff811115612a8157600080fd5b612a8d89828a0161287f565b92505060a087013567ffffffffffffffff811115612aaa57600080fd5b612ab689828a0161287f565b9150509295509295509295565b600060208284031215612ad557600080fd5b6000612ae3848285016128a9565b91505092915050565b600080600080600060a08688031215612b0457600080fd5b6000612b12888289016128a9565b955050602086013567ffffffffffffffff811115612b2f57600080fd5b612b3b8882890161287f565b945050604086013567ffffffffffffffff811115612b5857600080fd5b612b648882890161287f565b935050606086013567ffffffffffffffff811115612b8157600080fd5b612b8d8882890161287f565b925050608086013567ffffffffffffffff811115612baa57600080fd5b612bb688828901612855565b9150509295509295909350565b6000612bcf8383612d02565b905092915050565b6000612be38383612e23565b905092915050565b612bf48161340c565b82525050565b612c038161340c565b82525050565b6000612c148261338d565b612c1e81856133c8565b935083602082028501612c308561336d565b8060005b85811015612c6c5784840389528151612c4d8582612bc3565b9450612c58836133ae565b925060208a01995050600181019050612c34565b50829750879550505050505092915050565b6000612c8982613398565b612c9381856133d9565b935083602082028501612ca58561337d565b8060005b85811015612ce15784840389528151612cc28582612bd7565b9450612ccd836133bb565b925060208a01995050600181019050612ca9565b50829750879550505050505092915050565b612cfc8161341e565b82525050565b6000612d0d826133a3565b612d1781856133ea565b9350612d27818560208601613463565b612d30816135cf565b840191505092915050565b6000612d46826133a3565b612d5081856133fb565b9350612d60818560208601613463565b612d69816135cf565b840191505092915050565b6000612d81601b836133fb565b9150612d8c826135e0565b602082019050919050565b6000612da4601c836133fb565b9150612daf82613609565b602082019050919050565b6000612dc76028836133fb565b9150612dd282613632565b604082019050919050565b6000612dea6013836133fb565b9150612df582613681565b602082019050919050565b6000612e0d601f836133fb565b9150612e18826136aa565b602082019050919050565b600060e083016000830151612e3b6000860182613058565b5060208301518482036020860152612e538282612d02565b91505060408301518482036040860152612e6d8282612d02565b91505060608301518482036060860152612e878282612d02565b9150506080830151612e9c6080860182613058565b5060a0830151612eaf60a0860182612beb565b5060c083015184820360c0860152612ec78282612c09565b9150508091505092915050565b600060e083016000830151612eec6000860182613058565b5060208301518482036020860152612f048282612d02565b91505060408301518482036040860152612f1e8282612d02565b91505060608301518482036060860152612f388282612d02565b9150506080830151612f4d6080860182613058565b5060a0830151612f6060a0860182612beb565b5060c083015184820360c0860152612f788282612c09565b9150508091505092915050565b600061010083016000830151612f9e6000860182613058565b5060208301518482036020860152612fb68282612d02565b91505060408301518482036040860152612fd08282612d02565b91505060608301518482036060860152612fea8282612d02565b9150506080830151612fff6080860182612beb565b5060a083015184820360a08601526130178282612d02565b91505060c083015184820360c08601526130318282612d02565b91505060e083015184820360e086015261304b8282612d02565b9150508091505092915050565b6130618161344a565b82525050565b6130708161344a565b82525050565b600060208201905061308b6000830184612bfa565b92915050565b600060208201905081810360008301526130ab8184612c7e565b905092915050565b60006020820190506130c86000830184612cf3565b92915050565b600060208201905081810360008301526130e781612d74565b9050919050565b6000602082019050818103600083015261310781612d97565b9050919050565b6000602082019050818103600083015261312781612dba565b9050919050565b6000602082019050818103600083015261314781612ddd565b9050919050565b6000602082019050818103600083015261316781612e00565b9050919050565b600060208201905081810360008301526131888184612ed4565b905092915050565b600060208201905081810360008301526131aa8184612f85565b905092915050565b60006020820190506131c76000830184613067565b92915050565b6000610100820190506131e3600083018b613067565b81810360208301526131f5818a612d3b565b905081810360408301526132098189612d3b565b9050818103606083015261321d8188612d3b565b905061322c6080830187612bfa565b81810360a083015261323e8186612d3b565b905081810360c08301526132528185612d3b565b905081810360e08301526132668184612d3b565b90509998505050505050505050565b600060c08201905061328a6000830189613067565b818103602083015261329c8188612d3b565b905081810360408301526132b08187612d3b565b905081810360608301526132c48186612d3b565b90506132d36080830185613067565b6132e060a0830184612bfa565b979650505050505050565b60006132f5613306565b905061330182826134c8565b919050565b6000604051905090565b600067ffffffffffffffff82111561332b5761332a6135a0565b5b602082029050602081019050919050565b600067ffffffffffffffff821115613357576133566135a0565b5b613360826135cf565b9050602081019050919050565b6000819050602082019050919050565b6000819050602082019050919050565b600081519050919050565b600081519050919050565b600081519050919050565b6000602082019050919050565b6000602082019050919050565b600082825260208201905092915050565b600082825260208201905092915050565b600082825260208201905092915050565b600082825260208201905092915050565b60006134178261342a565b9050919050565b60008115159050919050565b600073ffffffffffffffffffffffffffffffffffffffff82169050919050565b6000819050919050565b82818337600083830152505050565b60005b83811015613481578082015181840152602081019050613466565b83811115613490576000848401525b50505050565b600060028204905060018216806134ae57607f821691505b602082108114156134c2576134c1613571565b5b50919050565b6134d1826135cf565b810181811067ffffffffffffffff821117156134f0576134ef6135a0565b5b80604052505050565b60006135048261344a565b91507fffffffffffffffffffffffffffffffffffffffffffffffffffffffffffffffff82141561353757613536613542565b5b600182019050919050565b7f4e487b7100000000000000000000000000000000000000000000000000000000600052601160045260246000fd5b7f4e487b7100000000000000000000000000000000000000000000000000000000600052602260045260246000fd5b7f4e487b7100000000000000000000000000000000000000000000000000000000600052604160045260246000fd5b6000601f19601f8301169050919050565b7f546869732063726561746f7220646f6573206e6f742065786973740000000000600082015250565b7f596f752063616e27742065646974206f74686572277320706f73747300000000600082015250565b7f54686973206973206e6f7420796f75722070726f66696c6520596f752063616e60008201527f2065646974206974000000000000000000000000000000000000000000000000602082015250565b7f7573657220616c72656164792065786973747300000000000000000000000000600082015250565b7f5265656e7472616e637947756172643a207265656e7472616e742063616c6c00600082015250565b6136dc8161340c565b81146136e757600080fd5b50565b6136f38161344a565b81146136fe57600080fd5b5056fea26469706673582212207e71e67cf246bc17ad03e331fe0a35fb31904df267e05ff7661aeedec8c1343f64736f6c63430008040033",
  "linkReferences": {},
  "deployedLinkReferences": {}
}